:020000040800F2
:10000000C0090020C9010008D1010008D30100087F
:10001000D5010008D7010008D90100080000000040
:10002000000000000000000000000000DB010008EC
:10003000DD0100080000000067150008550B0008EE
:10004000E3010008E3010008E3010008D509000806
:10005000E3010008E3010008CD04000815050008CD
:10006000C50500081106000879060008E30100082C
:10007000E3010008E3010008E3010008E3010008D0
:10008000E3010008E3010008E3010008E3010008C0
:10009000E3010008E3010008E3010008E3010008B0
:1000A000E3010008E3010008E3010008E3010008A0
:1000B000E3010008E3010008E3010008E301000890
:1000C000E3010008E3010008E3010008E301000880
:1000D000E3010008E3010008E3010008E301000870
:1000E000E3010008E3010008E301000800F002F862
:1000F00000F05AF80AA090E8000C82448344AAF168
:100100000107DA4501D100F04FF8AFF2090EBAE865
:100110000F0013F0010F18BFFB1A43F0010318473B
:100120003C1700005C1700000A444FF0000C10F868
:10013000013B13F0070408BF10F8014B1D1108BF65
:1001400010F8015B641E05D010F8016B641E01F805
:10015000016BF9D113F0080F1EBF10F8014BAD1C55
:100160000C1B09D16D1E58BF01F801CBFAD505E073
:1001700014F8016B01F8016B6D1EF9D59142D6D3CD
:10018000704700000023002400250026103A28BFF5
:1001900078C1FBD8520728BF30C148BF0B607047F9
:1001A0001FB51FBD10B510BD00F058F81146FFF780
:1001B000F7FF00F0C3FF00F076F803B4FFF7F2FF9B
:1001C00003BC00F07DF8000009488047094800475B
:1001D000FEE7FEE7FEE7FEE7FEE7FEE7FEE7FEE7F7
:1001E000FEE7FEE704480549054A064B7047000054
:1001F000AD0B0008ED000008C0030020C00900207E
:10020000C0050020C00500204FF0000200B51346D5
:1002100094469646203922BFA0E80C50A0E80C5026
:10022000B1F12001BFF4F7AF090728BFA0E80C50D7
:1002300048BF0CC05DF804EB890028BF40F8042BD0
:1002400008BF704748BF20F8022B11F0804F18BF3D
:1002500000F8012B7047704770477047754600F0F3
:100260002BF8AE4605006946534620F00700854648
:1002700018B020B5FFF7B6FFBDE820404FF00006EC
:100280004FF000074FF000084FF0000BAC46ACE811
:10029000C009ACE8C009ACE8C009ACE8C00921F06D
:1002A00007018D46704710B50446AFF30080204625
:1002B000BDE81040FFF781BF0048704700030020F1
:1002C00001491820ABBEFEE726000200704700007F
:1002D0002DE9F04740F600490C4641F48061C4F234
:1002E000010990464945054601D1012006E0A4F1E7
:1002F0008040A0F58830B0FA80F0400942F6004A0C
:10030000C4F2010A00F09EFC0646A5EB0A0005F1C6
:100310004041B0FA80F0B1FA81F14009490908433F
:1003200000F090FC07460020B8F1080F38BF01200C
:1003300000F088FC002E18BF002F01D1BDE8F08727
:100340000028FBD041F218005545C4F2020024D029
:10035000B5F1804F49D141684FF0FF3341F00101C1
:1003600041604FF080410A88232742F080020A80D2
:100370000A8822F003020A801422C4F200021383C6
:100380000023138297829383138843F00103138021
:100390000A8842F001020A8027E00168472241F4FE
:1003A00000610160BAF8001041F08001AAF8001065
:1003B000BAF8001021F00301AAF800104FF0FF3145
:1003C000AAF82C100021AAF82410AAF82820AAF8CC
:1003D0003010BAF8141041F00101AAF81410BAF85C
:1003E000001041F00101AAF8001040F60001C4F22B
:1003F00001018C4209D041F20001C4F201018C429A
:1004000005D04C4507D1082102E0042100E010216D
:100410000268114301604FEA88010F20226800FA48
:1004200001F322EA03002060032022688840104381
:1004300020600120E26800FA08F00243E260E76809
:10044000DA4327EA0003E36012230027AF8400BFEA
:10045000AE8CB6F57A7FFBD3013B1E06F6D1E3687E
:100460000343E36023681A4022600822236802FAEB
:1004700001F1194321602169014321610021A9840F
:10048000AA8C3B2A06D8A1680142F9D101213B2A56
:1004900003D90CE000213B2A09D80022AA8400BF1E
:1004A000AA8C632A03D8A2680242F9D00221022949
:1004B0007FF444AF0021A984A98C632988BFBDE8DB
:1004C000F087A1680142F7D138E7000010B540F28B
:1004D0001444C4F201042068C00708BF10BD40F2F4
:1004E000D410C2F2000001684A68002A1CBF4968A3
:1004F0000160016840F2FE20C2F20000027845F27D
:100500000040C4F2000000F01BFC206840F0010035
:10051000206010BD2DE9F04182B040F21446C4F2D3
:1005200001063068800749D540F2D417C2F20007AF
:100530003868007808283DD147F6004440F2AC35D1
:10054000C0F60004C2F2000520462946022200F04F
:10055000C3F940F2FE28C2F2000898F80000032810
:1005600007D002280FD1286827280AD82868013028
:1005700008E068683B288EBF282068680130686002
:1005800001E014202860204600F078F9286801A9CD
:10059000ADF8040068680422ADF80600204600F0BB
:1005A000C3F9396898F8002045F20040C4F2000011
:1005B00000F0C6FB306840F00200306002B0BDE8D9
:1005C000F081000010B540F21444C4F20104206828
:1005D000400758BF10BD40F2FE20C2F20000017873
:1005E000032926BF017801390421017040F2D4119A
:1005F000C2F200010968027845F20040C4F200002E
:1006000000F09EFB206840F00400206010BD000058
:1006100010B540F21444C4F201042068000758BF2A
:1006200010BD40F2FE20C2F20000027840F2D41168
:10063000042AC2F2000108D0032A0BD0022A0ED1EC
:100640000A6813695BB1126908E00A68936B33B1F9
:10065000926B03E00A68536A0BB1526A0A60096838
:10066000027845F20040C4F2000000F069FB206807
:1006700040F00800206010BD10B540F21444C4F2F0
:1006800001042068C00658BF10BD40F2FE20C2F22F
:100690000000017803299ABF01780131022101701D
:1006A00040F2D411C2F200010968027845F200401C
:1006B000C4F2000000F044FB206840F0100020600D
:1006C00010BD000041F21801C4F2020108684FF6A3
:1006D000104C40F0010008600820C4F201000268DC
:1006E000CFF6FF7C22F00F020260026822F0F002D7
:1006F0000260026822F470420260026842F0010265
:100700000260026842F010020260026822F4706225
:100710000260026822F470420260426822F00F0216
:100720004260426842F0010242600A6842F00802F8
:100730000A600A6842F004020A6040F60041C4F20E
:1007400001010A6822F00F020A600A6842F00802FA
:100750000A600A6942F001020A61D0F8F82342F007
:100760000102C0F8F82340F20C42C4F201021368FF
:1007700043F001031360D0F8003423F00103C0F804
:1007800000340B6823F0F0030B600B6843F0800328
:100790000B600B6943F002030B61D0F8F83343F0B0
:1007A0000203C0F8F833136843F002031360D0F873
:1007B000003423F00203C0F80034D2F8F43323F4F9
:1007C0007063C2F8F433D2F8F43343F40063C2F830
:1007D000F43351F80C3043F0040341F80C30D0F8F6
:1007E000F83343F00403C0F8F833136843F004030C
:1007F0001360D0F8003423F00403C0F80034D2F8BA
:10080000F43323F47043C2F8F433D2F8F43343F4EE
:100810000043C2F8F43351F80C3043F0080341F8B8
:100820000C30D0F8F83343F00803C0F8F8331368FD
:1008300043F008031360D0F8003423F00803C0F835
:1008400000340B6823F470230B600B6843F400231F
:100850000B600B6943F010030B61D0F8F81341F003
:100860001001C0F8F813116841F010011160D0F8C0
:10087000001421F01001C0F80014704781B042F25A
:100880001001C4F202010090086800060BD540F286
:100890002310C4F2675041F80C0C48F6AB10CCF6AC
:1008A000EF5041F80C0C086840F002000860009816
:1008B0004860086840F04000086000BF51F8040C30
:1008C0008007FBD4086820F002000860086820F068
:1008D0004000086001B0704782B042F20403C4F2E5
:1008E00002030190009200BF98688007FCD4D8688A
:1008F000000609D540F22310C4F26750186048F68C
:10090000AB10CCF6EF501860009850B1002000BF3B
:10091000019A32F8102041F82020009A01309042CC
:10092000F6D302B07047000010B582B042F2100C4E
:10093000C4F2020C01900092DCF80000800705D59B
:10094000DCF8000020F00200CCF800000098C0079E
:1009500002D00098013000900098DCF800204FEAA7
:10096000500E12060BD540F22312C4F267524CF817
:100970000C2C48F6AB12CCF6EF524CF80C2CDCF8F1
:100980000020BEF1000F42F00102CCF8002015D08B
:100990004EF614530022CEF2000307E031F81200A5
:1009A000019C24F812000132964507D01868000710
:1009B000F4D5186820F008001860EFE75CF8040C24
:1009C0008007FBD4DCF8000020F00100CCF8000028
:1009D00002B010BD42F60400C4F200000188C9074D
:1009E00008BF704740F2B831C2F200010A78013204
:1009F0000A70018821F001010180704741F2200155
:100A0000C4F2020151F8040C40F0C05041F8040C4B
:100A100047F20000C4F20000026842F480720260F3
:100A2000086840F00100086008688007FCD5086885
:100A300020F440700860086840F4807008600A681C
:100A400042F60400C4F2000042F400420A6000BF13
:100A500001888906FCD5018841F01001018030F839
:100A6000041C41F0010120F8041C0021818047F69C
:100A7000FF718160018821F01001018001888906E1
:100A8000FCD500BF01888906FCD5704780B500F011
:100A900001F880BD82B041F204000021C4F20200DE
:100AA0000191009150F8041C41F4803140F8041C7D
:100AB00050F8041C01F400310091019901310191B9
:100AC000009919B90199B1F5A06FF1D150F8041C42
:100AD000890354BF0021012100910099012936D1D9
:100AE00042F20001C4F202010A6842F010020A60F8
:100AF0000A6822F003020A600A6842F002020A60F1
:100B00000168016001680160016841F48061016071
:100B1000016821F47C110160016841F4E811016071
:100B200050F8041C41F0807140F8041C50F8041C7B
:100B30008901FBD5016821F003010160016841F0E2
:100B400002010160016801F00C010829FAD102B02C
:100B50007047000010B540F2B43EC2F2000EDEF85D
:100B6000001040F274320131CEF800100021C2F2C0
:100B700000024FF0FF0C02E00D3127290CD0531872
:100B8000587DFF28F8D0D3F81100DEF80040A042CD
:100B900008BF83F815C0EFE74EF60450CEF2000010
:100BA000016841F08051016010BD000080B541F244
:100BB0000000C4F202000168002241F0010101605E
:100BC0004168CFF6FF021140416001684FF6FF72A5
:100BD000CFF6F66211400160016821F480210160C6
:100BE000416821F4FE0141604FF41F018160FFF76D
:100BF0004DFF4EF60850CEF200004FF0006101604C
:100C000080BD0000002848BF704700F01F00012190
:100C100001FA00F04EF20011CEF2000108607047B8
:100C20004EF6145300F00F02CEF2000309011A44ED
:100C300000F16043B0F1FF3FC8BF03F5644211709B
:100C400070470000002840F2A930C2F2000004BF43
:100C500001210170007880F00100704710B54CF65A
:100C6000CD4E8C460A28CCF6CC4E4FF0010209D36B
:100C7000014600BF8BB2A3FB0E14E108632B02F107
:100C80000102F7D891B200230A280CF8013010D3E2
:100C900083B20146A3FB0E04E00800EB8004013A96
:100CA000A1EB440141F0300194B2632B0CF8041025
:100CB000EED8511E00F1300289B260460CF80120D6
:100CC00010BD00004EF62450CEF20000016841F441
:100CD00080210160016841F400310160016841F444
:100CE000803101607047000040F2F820C2F200003D
:100CF00000780D21484340F27431C2F200010858D7
:100D00007047000041F21800C4F20200016841F08F
:100D10000401016040F60400C4F20100016821F002
:100D20000F010160016821F470410160016841F028
:100D300003010160016841F4405101607047000007
:100D400070B582B08DF807200D4609780446082951
:100D50005AD120460121002200F072F9A9682046EC
:100D600000F0DAF920460221002200F069F9E96872
:100D7000204600F0D1F920460321002200F060F95E
:100D8000296A204600F0C8F920460421002200F01C
:100D900057F9696B204600F0BFF99DF8071020460F
:100DA000002200F04DF941F62D01C0F60001204669
:100DB00000F0B2F940F2AC35C2F2000547F600404F
:100DC000C0F6000029460222FFF786FD20460221D8
:100DD000102200F035F9286840F26036C2F20006B1
:100DE00080B23146FFF73AFF0146204600F094F901
:100DF00020460321102200F023F96868314680B2B2
:100E0000FFF72CFF014640E02E782046012100220A
:100E100000F016F9A968204600F07EF9204602216C
:100E2000002200F00DF9E968204600F075F920462F
:100E30000321002200F004F9296A204600F06CF931
:100E400020460421002200F0FBF8696B204600F0E8
:100E500063F99DF80750092E0ED19DF80710204622
:100E6000002200F0EDF841F62D01C0F6000109A0C6
:100E7000042D08BF014608E020462946002200F064
:100E8000DFF841F62D01C0F60001204600F044F9DC
:100E900002B070BD3C3E0000018200BF818A89071C
:100EA000FCD5818A008B704745F20041C4F20001F5
:100EB000884241F21801C4F202010FD10A6842F0DF
:100EC00008020A6040F60042C4F20102136843F0CF
:100ED00070631360136843F0704313604A6842F410
:100EE00000124A60018841F40041018001886FF3DB
:100EF000DF310180818821F03F018180818841F0CC
:100F000024018180B421818325210184018841F05D
:100F10000101018070470000F0B581B01D46164602
:100F20000F46044600F014F820463946FFF7B4FF98
:100F300045B10020A18A0906FCD5315C0130A842E8
:100F40002182F7D1A08A4007FCD501B0F0BD000096
:100F5000018841F480710180818AC907FCD0808AB0
:100F6000704700002DE9F04744F20040C2F2000053
:100F700040F2743A00F54061C2F2000ACAF800106B
:100F800000F50061CAF80D1000F58061CAF81A106A
:100F9000CAF82700FF208AF808008AF815008AF8A6
:100FA00022008AF82F0040F24800C2F2000090E8C8
:100FB0000E00C06800250D264FF080786FF0020902
:100FC000CAF80910CAF81620CAF82330CAF8300047
:100FD00005FB06F05AF8004005FB06A744F8048C10
:100FE000D7F80900342144E90390A4F14000FFF749
:100FF0000BF90C2004304028FCD10135201A042DB7
:10100000386008BFBDE8F087E2E7000080B582B035
:1010100001F0F002090102F10D0309328DF80520FB
:1010200001F10D0209318DF804308DF806208DF89C
:10103000071001AA4E210423FFF76EFF02B080BD06
:101040000139032907D8DFE801F002080B0E6FF021
:101050007F01514009E0002107E0A2F1400104E0D6
:10106000A2F16C0101E0A2F12C0180B5C9B200F03F
:1010700039F8022000F03EFA80BD000010B533219F
:10108000044600F02FF82046322100F02BF8022011
:1010900000F030FA2046282100F024F8022000F069
:1010A00029FA2046012100F01DF8022000F022FA62
:1010B0002046062100F016F8022000F01BFA204618
:1010C0000C2100F00FF8022000F014FA2046022153
:1010D00000F008F8022000F00DFA2046802100F010
:1010E00001F810BD80B582B001F0F002090102F1F3
:1010F0000C0308328DF8052001F10C0208318DF83F
:1011000004308DF806208DF8071001AA4E21042323
:10111000FFF702FF02B080BDB0B50A78002A08BF11
:10112000B0BD04464D1E00BFD1B22046FFF76EFF92
:10113000AA780135002AF7D1B0BD0000FFF7C2FD43
:1011400044F20000C2F2000000F0FEF9FFF70AFFCF
:1011500000F0FDF9FFF7D6FD00F0BEF9FFF74EFCF9
:101160004FF0FF300021FFF75BFD4FF0FF30FFF73E
:1011700049FD6FF001000A21FFF752FD00F03AF837
:10118000002918BF704770B584B0044600686168D4
:10119000227A0023ADF80C3002930193FFF798F800
:1011A000D4E90001227AE36800F0C2F82069022144
:1011B0001022FFF745FFD4E9030501AE80783146E0
:1011C000FFF74CFD01462846FFF7A6FF20690321E3
:1011D0001022FFF735FFD4E9030431460078FFF70A
:1011E0003DFD01462046FFF797FF04B0BDE8704083
:1011F0007047000040F60C04C4F20104206840F47B
:10120000807020604FF4FA7000F074F9206820F4C8
:10121000807020604FF4FA7000F06CF9EEE7000087
:1012200040F60C04C4F20104206840F40060206021
:101230004FF47A7000F05EF9206820F400602060BE
:101240004FF47A7000F056F9EEE7000045F20044E2
:10125000C4F200042046FFF727FE2046FFF70EFFEA
:1012600040F2D41740F2FE20C2F20007C2F20000A2
:10127000396802782046FFF763FDFFF723FA06205E
:101280000121FFF7CDFC0620FFF7BCFC072002215F
:10129000FFF7C6FC0720FFF7B5FC08200221FFF787
:1012A000BFFC0820FFF7AEFC09200221FFF7B8FCC5
:1012B0000920FFF7A7FC0A200221FFF7B1FC0A2052
:1012C000FFF7A0FC03200121FFF7AAFC0320FFF792
:1012D00099FC40F2AC3447F6004840F2F92540F260
:1012E000A006C2F20004C0F60008C2F20005C2F275
:1012F000000600BF3868416939B1426930460021B3
:10130000904741F2883000F0F5F8386800780828F6
:1013100004D1404621460222FFF7DEFAA878216870
:101320008142E7D3A8782068E4E70000FEE70000E8
:101330002DE9F04740F2A835984691460E460746FB
:101340004FF0FF34C2F200054FF0000A3846314634
:101350004A4685F800A000F069F829784A4601F06D
:101360007F0141EAC01028703846314600F05EF82F
:10137000297800F0010001F0BF0141EA80102870D7
:10138000384631464A4600F051F8297800F001000D
:1013900001F0DF0141EA40102870384631464A46E4
:1013A00000F044F8297800F0010001F0EF0141EA73
:1013B00000102870384631464A4600F037F8297840
:1013C00000F0010001F0F70141EAC0002870384642
:1013D00031464A4600F02AF8297800F0010001F071
:1013E000FB0141EA80002870384631464A4600F049
:1013F0001DF8297800F0010001F0FD0141EA4000EC
:101400002870384631464A4600F010F8297800F036
:10141000010001F0FE0108442870287808EB04015F
:101420000134042C487091D1BDE8F08700238384F7
:10143000012303FA02F200BF838C632B0FD88B6861
:101440001342F9D000238384838C632B07D88B68E5
:101450001342F9D1808C322884BF012070470020CC
:101460007047000040F2F821C2F2000109780D2215
:10147000514340F27432C2F20002505070470000F3
:1014800080B540F2F82040F2743C0021C2F2000026
:10149000C2F2000C4FF00D0E04E000BF032901F171
:1014A000010113D2027801320270027802F00302C5
:1014B0000270027802FB0EC2127A037803FB0EC39D
:1014C0001B7AFF2BEAD10378002BE7D0FF2A1CBF41
:1014D0000021017080BD00004EF2100041F63F1166
:1014E000CEF20000C0F201014160002181600721BD
:1014F0000160704780B5EFF3108172B640F2F821B9
:10150000C2F200010A78E2B140F2B432C2F2000243
:1015100012680B7840F2743CC2F2000C4FF00D0ED2
:1015200003FB0EC3104458600878002100FB0EC076
:1015300001724EF60450CEF20000016841F0805175
:10154000016062B680BD000080F30888704700B576
:10155000FFF7CAFB80F309885DF804EB4FF0020047
:1015600080F31488704772B6EFF3098020E9F00F1A
:1015700000B5FFF777FFFFF783FFFFF7B5FBB0E894
:10158000F00F80F309885DF804EB62B67047202005
:1015900050554D5020202020202020202020202089
:1015A00020200020204448543131202020202020B9
:1015B000202020202020200020534156455F444118
:1015C00054412020202020202020202020002020E6
:1015D00053455454494E47202020202020202020CD
:1015E000202000202053454E534F525320202020CE
:1015F000202020202020200020204143544956450F
:101600005F31202020202020202020200020204189
:1016100043544956455F322020202020202020209E
:10162000200020204143544956455F33202020208C
:1016300020202020202000202054485245534F4C89
:1016400044202020202020202020200020204F5532
:1016500054484F5553452020202020202020202072
:1016600000202047415244454E5F31202020202059
:101670002020202000202047415244454E5F322048
:1016800020202020202020200020204741524445B7
:101690004E5F3320202020202020202000202041C9
:1016A00043545541544F52532020202020202020C5
:1016B00020002020202020202044485431312020A8
:1016C000202020202020002020444F20414D202099
:1016D00020203A20202020202020200020205741B8
:1016E000524E494E4720203A202020202020202002
:1016F0000020204E4849455420444F203A202020C5
:1017000020202020200020204144445F44455649A9
:101710004345202020202020200020205241494EF7
:101720005F53454E534F5220202020202020002080
:10173000204144445F53454E534F525320202020B4
:1017400020202000202020202053455454494E477B
:101750005F31202020202020002020202020204732
:10176000415244454E5F312020202020200020207F
:1017700020202053454E534F52535F3120202020CC
:1017800020200020202020202047415244454E5F49
:10179000322020202020200020202020202047410F
:1017A0005244454E5F332020202020200020544802
:1017B0005245534F4C445F54454D203A2020202041
:1017C0002020002054485245534F4C445F48554D0B
:1017D000203A2020202020200020202020205448B3
:1017E0005245534F4C445F312020202020002020C0
:1017F0002020204F5554484F5553455F312020201D
:10180000202000202020204143545541544F525362
:101810005F312020202020002020202020204D414A
:10182000494E5F4D454E552020202020003E00208F
:101830002050554C4C20494E20203A20202020207A
:1018400020434D00202050555348204F5554203AF6
:10185000202020202020434D000000007C1800089C
:101860000000002000030000280100087019000893
:1018700000030020C006000084010008320522B4E5
:101880001420031814088E15021008134C1614089F
:10189000D801C2200B10061728132D131408F511B8
:1018A000140821121B084D0432071320021B20B21A
:1018B000401AF104411A8120815AC714C11A371401
:1018C0001AB034D1142C01401A0804312AF91C1220
:1018D000543340011A8C941A59881AE3B42968C108
:1018E0004A9D5CB9141ACE28DA68285A02485A83ED
:1018F0004801105948D1294801105A03480A3D9817
:1019000048811318181B086134DAB4C41A7514DA44
:10191000FC141A89141A447CC1298C62091B20EE1C
:10192000941A2F5001100A1144140A11DCA8320431
:1019300029881A6E481AA3B4DA58801A1A180110A6
:101940000A112F145A06481A441C0A11F8FC0A11ED
:101950000D7C0A112214291129841AD9480A11ADC3
:10196000680A11C3140A11B8702B010A011202008F
:04000005080001C925
:00000001FF
